:10000000EEC082C207C106C105C104C1B5C902C1A3
:1000100001C100C1FFC0FEC0FDC0FCC0FBC0FAC0F2
:10002000F9C0F8C0F7C009022200010100800A09E6
:100030000400000103000000092101010001225910
:100040000007058103080064120110010000000888
:10005000C016D9270801010200012E0355005300E4
:1000600042002000490052002000520065006D004F
:100070006F00740065002000520065006300650099
:1000800069007600650072007003770077007700E2
:100090002E006D0069006B0072006F0063006F003E
:1000A0006E00740072006F006C006C0065007200DE
:1000B0002E006E00650074002F0061007200740055
:1000C000690063006C00650073002F005500530049
:1000D00042005F00490052005F00520065006D0061
:1000E0006F00740065005F005200650063006500EA
:1000F0006900760065007200040309041202080812
:100100000E02080105000E14202801010017030645
:10011000030600000000000909111600000309058C
:100120000C050900000000050D0D15150000030762
:100130000B100B10000000000107070D0D0000015F
:1001400003050C1021050C050C00101525250101D7
:10015000001C050C1122050C050C000D1A222A01A9
:10016000010002050C1122050C050C000000000026
:10017000010100010F15070B070B070B0F14000FF0
:100180001400010005010B010000FFA1011500266C
:10019000FF0075088501950609008200018502951A
:1001A000010900B20201850395060900B20201852A
:1001B0000495010900B20201850595060900B20205
:1001C00001850695020900B2020185079504090020
:1001D000B20201850895010900B20201C000112494
:1001E0001FBECFE5D4E0DEBFCDBF10E0A0E6B0E09B
:1001F000EEE6F8E102C005900D92AC37B107D9F7F1
:1002000011E0ACE7B0E001C01D92A631B107E1F703
:1002100033DA2BCBF5CECF93C62F2091EB0024FF02
:1002200007C02091EC0038E823272093EC0003C09E
:100230002AE52093EB00DC01EDEEF0E09C2F9E0F11
:100240008D918193892F8E1B1816D4F36C2F8DEE10
:1002500090E056D1CC5FC093EB00CF910895CF933F
:10026000DF936091FC00635067FDC1C08091F9008D
:10027000CCE0D0E0C81BD109C050DF4F8091F8001E
:100280008D3209F0A3C0683009F0AFC083EC8093D1
:10029000E0008AE58093610010927C00888180767E
:1002A00019F0CE0116D97FC09A811092E900898198
:1002B000811106C01092EA0029EE30E082E06FC0A2
:1002C000853019F49093FD0067C0863009F04EC068
:1002D0008B81813041F488E490E09093FB0080931F
:1002E000FA0082E13FC0823041F486E290E09093D0
:1002F000FB008093FA0082E235C08330F1F4911163
:1003000008C088EF90E09093FB008093FA0084E0AF
:1003100029C0913041F488E890E09093FB008093ED
:10032000FA0080E71FC09230E1F48AE590E09093F4
:10033000FB008093FA008EE215C0813241F488E31D
:1003400090E09093FB008093FA0089E00BC082322A
:1003500041F484E891E09093FB008093FA0089E5F2
:1003600001C080E090E490937C001DC0883069F06B
:10037000893019F49093FF000FC08A3049F08B3018
:1003800059F48BE48093EC0007C02FEF30E002C0FB
:1003900029EE30E081E003C029EE30E080E03093C8
:1003A000FB002093FA008F3F39F4988197FD8E81EE
:1003B00090E890937C0007C09F81911104C09E81BA
:1003C000981708F4892F809360000FC080917C00FB
:1003D00087FF0BC0CE0123D88F3F21F48EE180939D
:1003E000610003C08111109260001092FC008091A6
:1003F000610084FF56C0809160008F3F09F451C0B6
:10040000C82F893008F0C8E08C1B80936000809171
:10041000E00098E889278093E000CC2389F180915F
:100420007C0087FF08C06C2F81EE90E0C9D7C82FF1
:10043000893088F525C04091FA005091FB0086FF75
:100440000BC0A1EEB0E0FA018C2F8A0F94919D931E
:1004500031968A13FBCF09C0DA01E1EEF0E08C2F70
:100460008E0F9D9191938E13FCCF2FEF2C0F30E0C8
:100470002F5F3F4F240F351F3093FB002093FA006E
:100480006C2F81EE90E03CD0CC5FCC3041F08FEF10
:100490008093600004C08FEF80936000CEE1C09332
:1004A000610084E196B3937031F48150D9F71092D2
:1004B000FD001092F700DF91CF91089585B782601B
:1004C00085BF8BB780648BBF8BE48093EC008AE59B
:1004D0008093EB000895A82FB92F80E090E041E0D1
:1004E00050EA609530E009C02D9182279795879555
:1004F00010F084279527305EC8F36F5FA8F3089546
:10050000EADF8D939D930895CF93CFB7CF93C39593
:10051000B09BE9F7B09B09C0B09B07C0B09B05C07A
:10052000B09B03C0B09B01C0A3C0DF93C091F90092
:10053000DD27C050DF4FB09B02C0DF91EBCF2F9380
:100540000F931F9306B32FEF00FB20F94F933F93B8
:1005500016B34FEF012700FB21F93BE031C04E7F7E
:10056000012F16B3216028C0102F4D7F226000009C
:1005700006B329C04B7F2460012F000016B32BC0A7
:1005800016B3477F28602AC04F7E06B320612CC077
:100590004F7D16B320622FC04F7B06B3206432C05C
:1005A000422706B349934FEF0000102710FB20F9B4
:1005B00016B31370C9F1297F91F2012700FB21F9CD
:1005C00006B3237F89F2315058F1102710FB22F92E
:1005D00016B3277E79F2012700FB23F92F7C81F2E5
:1005E00006B3102710FB24F92F7971F200C016B35F
:1005F000012700FB25F92F7359F200C006B310271D
:1006000010FB26F9223040F200C016B3012700FB90
:1006100027F9243028F64F77206816B30000F9CF69
:1006200010E41ABF002719C03B503195C31BD040BE
:1006300010E41ABF0881033CF9F00B34E9F0209173
:10064000F7001981110F1213EDCF4A81441F0936AB
:1006500041F10D3211F0013E29F70093FE003F9168
:100660004F911F910F912F91DF91CAB7C6FD4FCFC8
:10067000CF91CFBFCF9118952091FE00222379F31F
:100680001091FC00112369F534306AF13093FC00BD
:100690002093F8001091F9003BE0311B3093F900F2
:1006A00022C00091FC000130E4F40AE54F7049F4E7
:1006B0003091610034FD19C000936100C0EED0E0BC
:1006C00018C03091EB0034FD10C00093EB00CCEE6D
:1006D000D0E00FC02795A8F45150A9F4220F0000D4
:1006E000F9CF4AE503C042ED01C0432FC4E1D0E099
:1006F00032E017B31360C09A17BB08B320E413E0CD
:100700005F93012756E008BB279520F4515021F450
:10071000220FF9CF012756E000003B5A08BBD0F268
:10072000279528F4515029F4220F0000F9CF012712
:1007300056E0279508BB20F4515021F4220FF9CF41
:10074000012756E02991332308BB21F60C7F109135
:10075000FD00110FC651D04008BB11F01093F700F7
:1007600010E41ABF016017B31C7F402F4C7F5F91CC
:1007700000C000C008BB17BB48BB71CF6091BD0073
:100780009091B500691730F12091B600621710F50D
:100790007091BB00482F50E0209190003091910063
:1007A000772379F0762F791B072E02C0440F551F4F
:1007B0000A94E2F7422B532B509391004093900000
:1007C00032C0220F331F242B352B309391002093FE
:1007D000900029C09091B700691728F12091B800C6
:1007E000621708F57091BB00482F50E020918E00F1
:1007F00030918F00772379F0762F791B072E02C076
:10080000440F551F0A94E2F7422B532B50938F004D
:1008100040938E0008C0220F331F242B352B3093BA
:100820008F0020938E009091AC009C31B9F493EF2F
:10083000960F9D3058F590E023EF260F02C0880FE9
:10084000991F2A95E2F720918C0030918D00282B7A
:10085000392B30938D0020938C0018C09330B1F465
:100860009FEE960F943090F490E02FEE260F02C08A
:10087000880F991F2A95E2F720918800309189000E
:10088000282B392B30938900209388006F5F609369
:10089000BD000895C598BD980895FC0180919A0007
:1008A000882309F48FC080919900873009F47CC0B7
:1008B00028F4823089F1833041F086C0813109F417
:1008C00055C0873109F452C07FC080919500909146
:1008D00096002091950030919600892F99272095B8
:1008E000309533278217930709F068C080919500EF
:1008F000909196009927909396008093950020916F
:100900009500309196008091930090919400982FDB
:100910008827822B932B43C080919500909196005D
:100920002091950030919600892F99272095309538
:10093000332782179307A1F0809197009091980038
:100940008E3E9748D9F58BE0809399008091950071
:1009500090919600892F9927909398008093970003
:100960008091950090919600992719C080919500EB
:100970009091960020919500309196008695817017
:1009800091E098272170332781E028272170921762
:10099000A9F08091950090919600969587959093F7
:1009A00096008093950010C08091970090919800D8
:1009B0008F7D909398008093970006C080E01092FE
:1009C0009A00089580E00895809199008083809135
:1009D00097009091980092838183809195009091E7
:1009E0009600948383838091920085831092960071
:1009F0001092950010929800109297001092920019
:100A000081E0DDCFCF93DF9386B390919A0091116F
:100A10003BC3807290918700911138C090918600FD
:100A2000811104C09F5F909386002EC39923F9F033
:100A300081E080938700809385001092840010925B
:100A40008F0010928E0010929100109290001092E0
:100A50008B0010928A0010928D0010928C009FEFF4
:100A60009093BD0080938300109282000DC380910B
:100A70008000909181008F3F2FEF920709F404C30B
:100A800001969093810080938000FEC29091850032
:100A9000992309F4E1C0882349F0809183008F5F96
:100AA000809383008A3E08F4EDC1D8C110929B0068
:100AB0008091860091EE980F9B3030F490918300E6
:100AC0009650953008F484C092EA980F943558F403
:100AD0009091830022ED290F2C3208F47CC09751AD
:100AE000973108F47BC094EC980F903130F49091DA
:100AF00083009C53903108F474C095EF980F9630A2
:100B000020F09AEE980F9B3078F59091830025EFB6
:100B1000290F263020F02AEE290F2B3028F58D5191
:100B2000853050F49D50933038F441E150E06CEF43
:100B300070E08BE990E054D69091830090937F0011
:100B4000809186008151803118F09151903130F4BC
:100B500010927E0080E48093820003C081E0809345
:100B60007E006FE271E042C09DED980F9B3068F40B
:100B7000909183009B50963040F410927F0081E06A
:100B800080937E006EE171E031C09DEF980F9A3046
:100B900090F4909183002AEF290F253020F024EF64
:100BA000290F293040F490937F0081E080937E00EC
:100BB0006DE071E01BC08D51853028F48091830079
:100BC0008D50833088F01092870060E070E00EC096
:100BD00063E771E00BC061E571E008C062E671E0B7
:100BE00005C060E471E002C06CEF70E080918700A6
:100BF000882329F041E150E08CEA90E0F1D5109291
:100C0000BD008091BC0080FF1FC09091AC00973167
:100C1000D9F09930C9F0409183002091AE0024179B
:100C200060F450E030E0220F331F241735072CF01A
:100C30008695817091E0892706C090917E00911180
:100C400003C0869581709ADD81E0809386001092C2
:100C500083001092850016C190918400992309F4B5
:100C600004C1882309F415C26091BD008091B900C8
:100C7000681317C09091BA00913099F48091BC002C
:100C800080FD0CC0809186009091B100891708F416
:100C9000E5C09091B200981708F4E0C01092BA0035
:100CA000F1C0909183009F5F909383007091AC009E
:100CB000713031F5492F50E04C3051050CF46BC0C8
:100CC0006B3008F468C081E0860F8093B900862FEE
:100CD00090E00B97382F22278091900090919100FF
:100CE000822B932B90939100809390008091B7007A
:100CF000860F8F5F8093B8008AE080938300C9C11C
:100D0000773109F048C02091BA00211144C0809188
:100D1000B000292F30E090E0880F991F281739077D
:100D20003CF06F3008F4AEC081E18093B9004EC052
:100D3000613108F4A7C081E18093AC001092B50046
:100D40008BE08093B6008093B70086E18093B80073
:100D500080918E0090918F009C01F6E0369527954A
:100D6000FA95E1F74091900050919100440F551F82
:100D7000440F551F242B352B309391002093900066
:100D80008F739927B4E0880F991FBA95E1F72091E6
:100D90007E00822B5EC02091BC0020FF1BC02091F2
:100DA000B000492F50E030E0220F331F42175307A5
:100DB0008CF0462F50E0282F30E0225031094217A6
:100DC000530744F02091BA00211104C081E08093C0
:100DD000BA005FC19A3E08F455C0262F30E090E07B
:100DE00001972817390741F48091BA00811104C096
:100DF0006F5F6093BD0046C07C3181F5603271F554
:100E000081E08093BA0082E08093AC006093B900E7
:100E100080918C0090918D00AC01542F4427529505
:100E2000550F507E2091900030919100242B352B4E
:100E3000309391002093900040918E00342F330F17
:100E4000330F20E043E0969587954A95E1F7822B92
:100E5000932B90938F0080938E0014C01092870084
:100E600010928600109283000DC0811106C08091FF
:100E700086008F5F8093860005C081E080938400A8
:100E80008093830080918700882309F4FDC04091FE
:100E9000BD008091B9004813F7C08091BA0081115C
:100EA000F3C0809164009091650020918E00309194
:100EB0008F008217930769F42091800030918100A0
:100EC000203B344030F420917D002F5F20937D0043
:100ED00002C010927D00E091AC00E13051F420910D
:100EE0007D002150223058F4109281001092800031
:100EF00093C0EA3021F420917D0020FDF5CF21E060
:100F000020939A00E23011F5411128C02091800011
:100F10003091810028303740B0F420916200309148
:100F20006300309391002093900090938F00809302
:100F30008E002091920021602093920010928100F7
:100F4000109280000BC010929A0008C0E93031F472
:100F5000443221F425E12093990032C0E0939900B6
:100F6000E23171F520918E0030918F00A9014F7010
:100F70005527A4E036952795AA95E1F7452B09F06A
:100F8000206830938F0020938E00609190007091C4
:100F90009100AB01440F551F440F551F44275F704C
:100FA00020918E0030918F00242B352B30938F00B1
:100FB00020938E006F737727709391006093900059
:100FC00020919000309191003093980020939700E9
:100FD000E23029F430936300209362000DC0E730C3
:100FE00059F44091820020918E0030918F00242B83
:100FF00030938F0020938E0020918E0030918F00CF
:1010000030939600209395002091880030918900BC
:10101000309394002093930020919A00222351F161
:1010200020918E0030918F0040919000509191005E
:101030008217930799F4809162009091630084175E
:10104000950761F480918000909181008A3C9840DE
:1010500028F4809192008160809392005093630005
:1010600040936200309365002093640010928100E9
:10107000109280001092870010928F0010928E00C4
:10108000109286001092830080919A00DF91CF9198
:1010900008958091BC0080FFD8C0C09186009091D7
:1010A000AE009C1708F048C09091AC009930A1F4B4
:1010B0009091BD00943081F42C2F30E02C3031051C
:1010C0005CF08091B900843221F481E057DB81E04B
:1010D00030C080E053DB1EC0D1E0869581708D2743
:1010E0004DDB8091AC008930D9F48091BD00843013
:1010F000B9F48C2F90E00C979CF081E03FDB80915D
:10110000B0002091830030E090E0880F991F821793
:1011100093071CF410927E005EC0D0937E005BC0EB
:101120008091BC008695817029DB8091BC008695FA
:10113000817080937E004FC08091AD00C817A0F1F0
:1011400020917F008091B00040917E00821768F46A
:1011500030E090E0880F991F8217930734F081E008
:10116000411180E080937E0001C0842F9091AC00FB
:101170009930C1F49091BD009130A1F4813091F487
:1011800094E29093B90025E02093B50024E12093E8
:10119000B60025E12093B7009093B800109291001B
:1011A00010929000EBDA17C080919B00823179F4A5
:1011B000C250C73060F48091830098EF980F973049
:1011C00018F08150853018F41092AC0004C01092D1
:1011D00087001092830080919B00823189F5809175
:1011E00086008250873060F58091830098EF980FD9
:1011F000973010F481E004C08150853010F480E015
:10120000FED18091AC0081111BC081E1EBE9F0E0DF
:10121000ACEAB0E001900D928A95E1F710929B0044
:1012200080918C0090918D0090939100809390001C
:1012300080918A0090918B0090938F0080938E0014
:101240008091830080937F0075C08091AC008330D3
:1012500041F59091BD00903131F580918600855027
:10126000883058F58091830024EC280F203150F409
:1012700010928400109289001092880081E180937E
:10128000BD005AC02AE02093AC009093B70090E2D2
:101290009093B8009093B9008051823108F048C013
:1012A00037C08C3179F0809186009091AD0089171C
:1012B00008F59091B100891768F510928700109297
:1012C00083003AC08091BD00883069F79091830017
:1012D0009E529C3240F79BE19093AC001092B50077
:1012E0008093B6008093B70080E18093B80080932C
:1012F000B90020C09091AE009817D8F29091830069
:101300002091AF009217A8F22091B000291788F21F
:1013100081E00FC09091B200981778F2809183001D
:101320009091B300891748F29091B400981728F271
:1013300080E024DA1092840081E09CCD89E08EBDAB
:101340008FE193E09BBD8ABD80E189BF08958FEF57
:1013500088BB17BA82BB11BA929893E094BB8EEF08
:1013600085BB88B3892788BB88B390E1892788BB70
:1013700087B3892787BB089578941F920F920FB681
:101380000F9211242F933F934F935F936F937F930B
:101390008F939F93AF93BF93EF93FF9333DBFF91B3
:1013A000EF91BF91AF919F918F917F916F915F91DD
:1013B0004F913F912F910F900FBE0F901F90189556
:1013C000FF920F931F93CF93DF93F62EC091DD0012
:1013D000D091DE00262F30E0C217D30708F4FC2E90
:1013E0002091DB000F2D10E0273039F46091DF00F1
:1013F00070E062547F4FA80109D28091DF008F0D09
:101400008093DF00C01BD10BD093DE00C093DD00C2
:101410008F2DDF91CF911F910F91FF900895FF9233
:101420000F931F93CF93DF93EC01F62E8091DD0095
:101430009091DE00009709F445C0262F30E0821716
:10144000930708F4F82E8091DC000F2D10E06091D6
:10145000DF00843049F470E0A801CE010196EFD19D
:101460008981809367001AC0853071F470E02196FD
:10147000A801CE01E4D186E0FE01AEECB0E001901F
:101480000D928A95E1F70AC0883041F470E0A80116
:10149000CE010196D4D18981809366008091DF00CE
:1014A0008F0D8093DF002091DD003091DE00201B46
:1014B000310B3093DE002093DD0081E0232B19F007
:1014C00080E001C081E0DF91CF911F910F91FF90EB
:1014D0000895CF93FC0180818076803211F0C0E0C6
:1014E00064C081818130C1F58EEB90E09093FB0068
:1014F0008093FA00C281C23051F4C093BE0041E033
:1015000050E060E070E08FEB90E089D14EC0C330D6
:1015100059F4C093BE0046E050E061E070E08FEB0C
:1015200090E07DD1C7E041C0C730C9F6C093BE008E
:1015300086E0E5E7F0E0AFEBB0E001900D928A9530
:10154000E1F726E030E03093DE002093DD001092DA
:10155000DF00C093DB0028C0893009F622812430E7
:1015600049F481E090E09093DE008093DD001092DA
:10157000DF0018C0253051F486E090E09093DE0043
:101580008093DD0081E08093DF000CC0283009F0FB
:10159000A6CF87E08093DF0081E090E09093DE00AB
:1015A0008093DD002093DC00CFEF8C2FCF91089546
:1015B0008091D90080FD03C01092DA0005C08091AF
:1015C000DA008F5F8093DA009091DA0080916600F4
:1015D000981718F4992319F008958093DA0081E0A0
:1015E0008093BE0086E0E4EDF0E0AFEBB0E0019068
:1015F0000D928A95E1F767E08EEB90E00CC6909132
:10160000AC002091BD00992311F0225001C021505F
:101610003091A4002317B0F09091A500291790F401
:1016200090E0231B02C0880F991F2A95E2F72091B2
:101630008C0030918D00282B392B30938D00209316
:101640008C0008953091A6002317A8F09091A70070
:10165000291788F490E0231B02C0880F991F2A9550
:10166000E2F720918A0030918B00282B392B3093A0
:101670008B0020938A000895CF93DF931F92CDB7FC
:10168000DEB788E10FB6F89481BD11BC0FBE2EE025
:1016900088E190E00FB6F894A89581BD0FBE21BDFA
:1016A00056DE86E0E4EDF0E0DF01982F1D929A957A
:1016B000E9F7EEECF0E0DF011D928A95E9F7EAD850
:1016C0003DDEA99AA898B89A1982898181508983A8
:1016D000882341F0A89587E99AE30197F1F700C0C4
:1016E0000000F3CFB898EAD6789441E050E060E08B
:1016F00070E0CE01019693D089818F3F41F441E0A3
:1017000050E060E070E087E690E099D002C08093FE
:10171000670041E050E067E070E0CE0101967FD0C5
:1017200089818F3F41F441E050E067E070E086E658
:1017300090E085D002C08093660046E050E061E012
:1017400070E08EEC90E06BD006E010E1A89584ED9F
:1017500090E0A3D8882309F441C08091CE00815045
:101760008E3F20F5809167008823F1F045E050E03E
:101770006EEC70E084ED90E03CD0892BA9F488B346
:10178000812788BB898181508983882349F0A89566
:1017900066D5ABEDB5E01197F1F700C00000F2CFD0
:1017A00088B3812788BB12C003DF10C046E050E039
:1017B00061E070E084ED90E042D0E4EDF0E0AEEC6A
:1017C000B0E0802F01900D928A95E1F7A9988BEDFA
:1017D00095E00197F1F700C00000A99A40D5B6CF77
:1017E000FB01DC0102C005900D9241505040D8F73A
:1017F0000895FB01DC0104C08D910190801921F452
:1018000041505040C8F7881B990B0895FB01DC013B
:1018100002C001900D9241505040D8F70895DC016C
:10182000CB01FC01E199FECF06C0FFBBEEBBE09A05
:1018300031960DB20D9241505040B8F70895DC0139
:10184000CB0102C02D9105D041505040D8F70895EA
:10185000262FE199FECF9FBB8EBB2DBB0FB6F89410
:0E186000E29AE19A0FBE01960895F894FFCF28
:10186E00FF5AFFFFFFFF05010807050403020132BF
:0C187E002E322E3300322E322E330000AA
:00000001FF
