:10000000EEC082C207C106C105C104C1DFC902C179
:1000100001C100C1FFC0FEC0FDC0FCC0FBC0FAC0F2
:10002000F9C0F8C0F7C009022200010100800A09E6
:100030000400000103000000092101010001225910
:100040000007058103080064120110010000000888
:10005000C016D9270801010200012E0355005300E4
:1000600042002000490052002000520065006D004F
:100070006F00740065002000520065006300650099
:1000800069007600650072007003770077007700E2
:100090002E006D0069006B0072006F0063006F003E
:1000A0006E00740072006F006C006C0065007200DE
:1000B0002E006E00650074002F0061007200740055
:1000C000690063006C00650073002F005500530049
:1000D00042005F00490052005F00520065006D0061
:1000E0006F00740065005F005200650063006500EA
:1000F0006900760065007200040309041202080812
:100100000E02080105000E142028010100010F1540
:10011000070B070B070B0F14000F140001001C0541
:100120000C1122050C050C000D1A222A01010002F7
:10013000050C1122050C050C000000000001010057
:1001400003050C1021050C050C00101525250101D7
:1001500000070B100B10000000000107070D0D0039
:10016000000109050C050900000000050D0D15151D
:100170000000031703060306000000000009091130
:100180001600000305010B010000FFA10115002668
:10019000FF0075088501950609008200018502951A
:1001A000010900B20201850395060900B20201852A
:1001B0000495010900B20201850595060900B20205
:1001C00001850695020900B2020185079504090020
:1001D000B20201850895010900B20201C000112494
:1001E0001FBECFE5D4E0DEBFCDBF10E0A0E6B0E09B
:1001F000E2E0F8E102C005900D92A637B107D9F709
:1002000011E0A6E7B0E001C01D92A031B107E1F70F
:1002100059DAF5CAF5CECF93C62F2091E50024FF19
:1002200007C02091E60038E823272093E60003C0AA
:100230002AE52093E500DC01E7EEF0E09C2F9E0F1D
:100240008D918193892F8E1B1816D4F36C2F87EE16
:1002500090E056D1CC5FC093E500CF910895CF9345
:10026000DF936091F600635067FDC1C08091F30099
:10027000CCE0D0E0C81BD109C650DF4F8091F2001E
:100280008D3209F0A3C0683009F0AFC083EC8093D1
:10029000DA008AE58093600010927600888180768B
:1002A00019F0CE0139D97FC09A811092E30089817B
:1002B000811106C01092E40023EE30E082E06FC0AE
:1002C000853019F49093F70067C0863009F04EC06E
:1002D0008B81813041F488E490E09093F500809325
:1002E000F40082E13FC0823041F486E290E09093D6
:1002F000F5008093F40082E235C08330F1F491116F
:1003000008C088EF90E09093F5008093F40084E0BB
:1003100029C0913041F488E890E09093F5008093F3
:10032000F40080E71FC09230E1F48AE590E09093FA
:10033000F5008093F4008EE215C0813241F488E329
:1003400090E09093F5008093F40089E00BC0823236
:1003500041F484E891E09093F5008093F40089E5FE
:1003600001C080E090E4909376001DC0883069F071
:10037000893019F49093F9000FC08A3049F08B301E
:1003800059F48BE48093E60007C029EF30E002C007
:1003900023EE30E081E003C023EE30E080E03093D4
:1003A000F5002093F4008F3F39F4988197FD8E81FA
:1003B00090E89093760007C09F81911104C09E81C0
:1003C000981708F4892F809361000FC08091760000
:1003D00087FF0BC0CE0149D88F3F21F48EE1809377
:1003E000600003C08111109261001092F6008091AC
:1003F000600084FF56C0809161008F3F09F451C0B6
:10040000C82F893008F0C8E08C1B80936100809170
:10041000DA0098E889278093DA00CC2389F180916B
:10042000760087FF06C06C2F8BED90E0F3D7C82FC6
:1004300025C04091F4005091F50086FF0BC0FA01F1
:10044000ABEDB0E08C2F8A0F94919D9331968A1377
:10045000FBCF09C0DA01EBEDF0E08C2F8E0F9D9100
:1004600091938E13FCCF2C2F215030E02F5F3F4F04
:10047000240F351F3093F5002093F400C93058F451
:100480006C2F8BED90E03CD0CC5FCC3041F08FEF07
:100490008093610004C08FEF80936100CEE1C09330
:1004A000600084E196B3937031F48150D9F71092D3
:1004B000F7001092F100DF91CF91089585B7826027
:1004C00085BF8BB780648BBF8BE48093E6008AE5A1
:1004D0008093E5000895A82FB92F80E090E041E0D7
:1004E00050EA609530E009C02D9182279795879555
:1004F00010F084279527305EC8F36F5FA8F3089546
:10050000EADF8D939D930895CF93CFB7CF93C39593
:10051000B09BE9F7B09B09C0B09B07C0B09B05C07A
:10052000B09B03C0B09B01C0A3C0DF93C091F30098
:10053000DD27C650DF4FB09B02C0DF91EBCF2F937A
:100540000F931F9306B32FEF00FB20F94F933F93B8
:1005500016B34FEF012700FB21F93BE031C04E7F7E
:10056000012F16B3216028C0102F4D7F226000009C
:1005700006B329C04B7F2460012F000016B32BC0A7
:1005800016B3477F28602AC04F7E06B320612CC077
:100590004F7D16B320622FC04F7B06B3206432C05C
:1005A000422706B349934FEF0000102710FB20F9B4
:1005B00016B31370C9F1297F91F2012700FB21F9CD
:1005C00006B3237F89F2315058F1102710FB22F92E
:1005D00016B3277E79F2012700FB23F92F7C81F2E5
:1005E00006B3102710FB24F92F7971F200C016B35F
:1005F000012700FB25F92F7359F200C006B310271D
:1006000010FB26F9223040F200C016B3012700FB90
:1006100027F9243028F64F77206816B30000F9CF69
:1006200010E41ABF002719C03B503195C31BD040BE
:1006300010E41ABF0881033CF9F00B34E9F0209173
:10064000F1001981110F1213EDCF4A81441F0936B1
:1006500041F10D3211F0013E29F70093F8003F916E
:100660004F911F910F912F91DF91CAB7C6FD4FCFC8
:10067000CF91CFBFCF9118952091F800222379F325
:100680001091F600112369F534306AF13093F600C9
:100690002093F2001091F3003BE0311B3093F30004
:1006A00022C00091F6000130E4F40AE54F7049F4ED
:1006B0003091600034FD19C000936000CAEDD0E0B5
:1006C00018C03091E50034FD10C00093E500C6EE7F
:1006D000D0E00FC02795A8F45150A9F4220F0000D4
:1006E000F9CF4AE503C042ED01C0432FC4E1D0E099
:1006F00032E017B31360C09A17BB08B320E413E0CD
:100700005F93012756E008BB279520F4515021F450
:10071000220FF9CF012756E000003B5A08BBD0F268
:10072000279528F4515029F4220F0000F9CF012712
:1007300056E0279508BB20F4515021F4220FF9CF41
:10074000012756E02991332308BB21F60C7F109135
:10075000F700110FC651D04008BB11F01093F10003
:1007600010E41ABF016017B31C7F402F4C7F5F91CC
:1007700000C000C008BB17BB48BB71CFE0918C0024
:100780009091AD00E91748F12091AE00E21728F5ED
:100790004091B300682F70E020918600309187006F
:1007A000442391F04E2F50E0491B5109DB0102C058
:1007B000AA0FBB1F4A95E2F7AD01422B532B509372
:1007C00087004093860035C0220F331F262B372B1E
:1007D00030938700209386002CC09091AF00E917DA
:1007E00040F12091B000E21720F54091B300682F4E
:1007F00070E02091840030918500442391F04E2FC9
:1008000050E0491B5109DB0102C0AA0FBB1F4A95EA
:10081000E2F7AD01422B532B5093850040938400A7
:1008200008C0220F331F262B372B309385002093CF
:1008300084009091A4009C31C9F4ED3088F1EA3134
:1008400078F590E02E2F30E02D50310902C0880F4E
:10085000991F2A95E2F720918A0030918B00282B6E
:10086000392B30938B0020938A001AC09330C1F447
:10087000E131B0F0E531A0F490E02E2F30E02151CD
:10088000310902C0880F991F2A95E2F72091B5001F
:100890003091B600282B392B3093B6002093B50049
:1008A000EF5FE0938C000895C598BD980895FC0112
:1008B00080917F00882309F491C080917E00873069
:1008C00009F47EC030F4823091F1833009F088C0A1
:1008D00007C0813109F456C0873109F081C052C088
:1008E00080917A0090917B0020917A0030917B007A
:1008F000892F99272095309533278217930709F080
:1009000069C080917A0090917B00992790937B0039
:1009100080937A0020917A0030917B00809178005A
:1009200090917900982F8827822B932B44C0809137
:100930007A0090917B0020917A0030917B00892F82
:1009400099272095309533278217930709F414C00F
:1009500080917C0090917D008E3E9748D9F58BE088
:1009600080937E0080917A0090917B00892F992757
:1009700090937D0080937C0080917A0090917B0021
:10098000992719C080917A0090917B0020917A007C
:1009900030917B008695817091E0982721703327F4
:1009A00081E0282721709217A9F080917A00909118
:1009B0007B009695879590937B0080937A0010C07A
:1009C00080917C0090917D008F7D90937D0080933D
:1009D0007C0006C080E010927F00089580E00895BA
:1009E00080917E00808380917C0090917D00928335
:1009F000818380917A0090917B009483838380919E
:100A00007700858310927B0010927A0010927D000F
:100A100010927C001092770081E0DDCFCF93DF93BE
:100A200086B390917F009111B0C480729091800044
:100A3000911138C090918100811104C09F5F909303
:100A40008100A3C49923F9F081E080938000809312
:100A50008200109283001092850010928400109200
:100A600087001092860010928900109288001092E0
:100A70008B0010928A009FEF90938C0080938D00E2
:100A800010928E0082C480918F00909190008F3FD1
:100A90002FEF920709F479C4019690939000809308
:100AA0008F0073C490918200992309F4F1C08823C8
:100AB00049F080918D008F5F80938D008A3E08F40D
:100AC00061C3E8C11092910020918100822F8F5163
:100AD0008B3048F480918D0090E0863091051CF0B9
:100AE0000B970CF491C0822F8E55843570F4809151
:100AF0008D0090E08E3291052CF08A3591050CF432
:100B000086C003C047970CF085C0822F8C5380317C
:100B100050F480918D0090E08C33910524F08C345A
:100B200091050CF47AC0822F8B50863018F08B50D0
:100B30008B3088F530918D00832F8B50863018F0E4
:100B40008B508B3040F52D51253068F4832F90E089
:100B50000D974CF0303138F441E150E06CEF70E02B
:100B600081E990E014D690918D009093A20080913D
:100B700081008151803118F09151903130F4109200
:100B8000A30080E480938E0003C081E08093A300E3
:100B900061E571E047C0822F83528B3080F48091F1
:100BA0008D0090E08B30910554F0419744F4109201
:100BB000A20081E08093A30062E671E033C0822F3F
:100BC00083508A3088F480918D00982F965095300C
:100BD00018F09650993040F48093A20081E0809301
:100BE000A30063E771E01EC02D51253040F4209131
:100BF0008D00822F90E00D9714F0203188F0109234
:100C0000800060E070E00EC06DE071E00BC06EE14E
:100C100071E008C06FE271E005C060E471E002C0FD
:100C20006CEF70E080918000882329F041E150E072
:100C300084EA90E0ACD510928C008091B40080FFE3
:100C40001FC09091A4009731D9F09930C9F040911C
:100C50008D002091A600241760F450E030E0220FB0
:100C6000331F241735072CF08695817091E0892772
:100C700006C09091A300911103C0869581707EDD1E
:100C800081E08093810010928D00109282007AC2E0
:100C900090918300992309F468C2882309F478C3EA
:100CA00060918C008091B100681317C09091B200E0
:100CB000913099F48091B40080FD0CC08091810046
:100CC0009091A900891708F4E5C09091AA0098179F
:100CD00008F4E0C01092B20055C290918D009F5F61
:100CE00090938D007091A400713031F5492F50E040
:100CF0004C3051050CF46BC06B3008F468C0862F83
:100D00008F5F8093B100862F90E00B97382F2227BA
:100D10008091860090918700822B932B909387007F
:100D2000809386008091AF00860F8F5F8093B00024
:100D30008AE080938D002CC3773109F048C0209160
:100D4000B200211144C08091A800292F30E090E02A
:100D5000880F991F281739073CF06F3008F412C22A
:100D600081E18093B1004EC0613108F40BC281E192
:100D70008093A4001092AD008BE08093AE0080932E
:100D8000AF0086E18093B00080918400909185004F
:100D90009C01F6E036952795FA95E1F7409186009B
:100DA00050918700440F551F440F551F242B352B9E
:100DB00030938700209386008F739927B4E0880FC3
:100DC000991FBA95E1F72091A300822B5EC0209174
:100DD000B40020FF1BC02091A800492F50E030E054
:100DE000220F331F421753078CF0462F50E0282F55
:100DF00030E0225031094217530744F02091B200ED
:100E0000211104C081E08093B200C2C29A3E08F46E
:100E1000B9C1262F30E090E001972817390741F437
:100E20008091B200811104C06F5F60938C00AAC1F1
:100E30007C3181F5603271F581E08093B20082E00F
:100E40008093A4006093B10080918A0090918B0000
:100E5000AC01542F44275295550F507E20918600A7
:100E600030918700242B352B309387002093860008
:100E700040918400342F330F330F20E073E09695B8
:100E800087957A95E1F7822B932B90938500809339
:100E9000840078C1109280001092810010928D0021
:100EA00071C1C09181009091A6009C1708F048C0C4
:100EB0009091A4009930A1F490918C00943081F429
:100EC0002C2F30E02C3031055CF08091B100843261
:100ED00021F481E053DC81E030C080E04FDC1EC0B3
:100EE000D1E0869581708D2749DC8091A4008930FE
:100EF000D9F480918C008430B9F48C2F90E00C9759
:100F00009CF081E03BDC8091A80020918D0030E0D6
:100F100090E0880F991F821793071CF41092A3008A
:100F200063C0D093A30060C08091B40086958170A7
:100F300025DC8091B400869581708093A30054C015
:100F40008091A500C817A8F12091A2008091A80067
:100F5000821778F430E090E0880F991F821793078A
:100F600044F081E09091A300911180E08093A30070
:100F700002C08091A3009091A4009930C1F4909197
:100F80008C009130A1F4813091F494E29093B100FF
:100F900025E02093AD0024E12093AE0025E12093CD
:100FA000AF009093B0001092870010928600E6DBAD
:100FB0001BC080919100823199F48C2F90E0823097
:100FC000910574F0099764F480918D00982F9850E2
:100FD000973018F08150853018F41092A40004C0A6
:100FE0001092800010928D00809191008231A1F5C5
:100FF0008091810090E08230910574F1099764F549
:1010000080918D00982F9850973010F481E004C0A3
:101010008150853010F480E014D38091A4008111B8
:101020001BC081E1E1E9F0E0A4EAB0E001900D929B
:101030008A95E1F71092910080918A0090918B003F
:10104000909387008093860080918800909189001A
:10105000909385008093840080918D008093A200FE
:1010600050C08091A400833079F580918C0080314C
:1010700009F04AC0809181008550883008F06FC027
:1010800020918D00822F90E08C3391056CF08C3490
:10109000910554F4109283001092B6001092B5009E
:1010A00081E180938C005FC08AE08093A40080E19E
:1010B0008093AF0080E28093B0008093B100205114
:1010C000223108F049C034C08C31F1F420918C00F9
:1010D0002830D1F480918D0090E08E329105A4F0FB
:1010E0008A3591058CF48BE18093A4001092AD00B9
:1010F0002093AE002093AF0080E18093B0008093F6
:10110000B100109283002FC0809181009091A500C2
:10111000891780F09091A600981760F090918D004B
:101120002091A700921730F02091A800291710F005
:1011300081E013C09091A900891788F09091AA00CE
:10114000981768F080918D009091AB00891738F066
:101150009091AC00981718F080E010DBD2CF10927D
:10116000800010928D0081E005C0811106C0809141
:1011700081008F5F8093810005C081E080938300B0
:1011800080938D0080918000882309F4FEC04091F7
:101190008C008091B1004813F8C08091B200811199
:1011A000F4C080916200909163002091840030919E
:1011B00085008217930769F420918F003091900089
:1011C000203B344030F42091B7002F5F2093B700CC
:1011D00002C01092B700E091A400E13031F42091F8
:1011E000B7002150223060F406C0EA3049F4209163
:1011F000B70020FF05C01092900010928F008DC0A4
:1012000021E020937F00E23011F5411128C02091A8
:101210008F003091900028303740B0F42091640066
:10122000309165003093870020938600909385006D
:1012300080938400209177002160209377001092A2
:10124000900010928F000BC010927F0008C0E93010
:1012500031F4443221F425E120937E0032C0E09342
:101260007E00E23171F52091840030918500A90162
:101270004F705527D4E036952795DA95E1F7452B41
:1012800009F02068309385002093840060918600E7
:1012900070918700AB01440F551F440F551F442721
:1012A0005F702091840030918500242B352B309382
:1012B0008500209384006F73772770938700609375
:1012C0008600209186003091870030937D00209326
:1012D0007C00E23029F430936500209364000DC057
:1012E000E73059F440918E002091840030918500C0
:1012F000242B30938500209384002091840030912A
:10130000850030937B0020937A002091B5003091C6
:10131000B600309379002093780020917F0022233B
:1013200051F12091840030918500409186005091C8
:1013300087008217930799F480916400909165006B
:101340008417950761F480918F00909190008A3CFA
:10135000984028F4809177008160809377005093C3
:101360006500409364003093630020936200109204
:10137000900010928F0010928000109285001092C1
:1013800084001092810010928D0080917F0005C032
:101390008091B40080FD85CD64CEDF91CF9108951A
:1013A00089E08EBD8FE193E09BBD8ABD80E189BF5E
:1013B00008958FEF88BB17BA82BB11BA93E094BB34
:1013C0008EEF85BB88B3892788BB089578941F92D8
:1013D0000F920FB60F9211242F933F934F935F9369
:1013E0006F937F938F939F93AF93BF93EF93FF93ED
:1013F00015DBFF91EF91BF91AF919F918F917F91FD
:101400006F915F914F913F912F910F900FBE0F9071
:101410001F9018951F93CF93DF93162FC091B8009C
:10142000D091B900262F30E0C217D30708F41C2F43
:101430002091BA00273049F42091BB0030E02454B9
:101440003F4F412F50E0B901ABD18091BB00810FDC
:101450008093BB00C11BD109D093B900C093B800E1
:10146000812FDF91CF911F9108951F93CF93DF9329
:10147000EC01162F8091B8009091B900009709F403
:1014800046C0262F30E08217930708F4182F80916A
:10149000CC006091BB00843051F4412F50E070E0EB
:1014A000CE01019696D18981809366001CC085305B
:1014B00079F42196412F50E070E0CE018AD186E088
:1014C000FE01ADECB0E001900D928A95E1F70BC002
:1014D000883049F4412F50E070E0CE01019679D177
:1014E0008981809367008091BB00810F8093BB004E
:1014F0002091B8003091B900211B31093093B90017
:101500002093B80081E0232B19F080E001C081E036
:10151000DF91CF911F910895FC0180818076803208
:1015200011F080E0089581818130C9F58CEB90E065
:101530009093F5008093F4002281223059F4209397
:10154000BC0041E050E060E070E08DEB90E031D114
:1015500082E00895233059F42093BC0046E050E027
:1015600061E070E08DEB90E024D187E008952730B2
:10157000C1F62093BC0086E0EFE6F0E0ADEBB0E012
:1015800001900D928A95E1F786E090E09093B90082
:101590008093B8001092BB002093BA0029C0893014
:1015A00009F0BFCF2281243049F481E090E090938C
:1015B000B9008093B8001092BB0018C0253051F4D8
:1015C00086E090E09093B9008093B80081E080932A
:1015D000BB000CC0283009F0A4CF87E08093BB008B
:1015E00081E090E09093B9008093B8002093CC0004
:1015F0008FEF08958091D80080FD03C01092D9002C
:1016000005C08091D9008F5F8093D9009091D90057
:1016100080916700981718F4992319F00895809322
:10162000D90081E08093BC0086E0E3EDF0E0ADEB13
:10163000B0E001900D928A95E1F767E08CEB90E0C5
:10164000EAC59091A40020918C00992311F02250BA
:1016500001C0215040919A002417C0F090919B0046
:101660002917A0F490E030E0241B310902C0880F54
:10167000991F2A95E2F720918A0030918B00282B40
:10168000392B30938B0020938A00089540919C0061
:101690002417B8F090919D00291798F490E030E05D
:1016A000241B310902C0880F991F2A95E2F7209167
:1016B000880030918900282B392B309389002093A2
:1016C00088000895CF93DF931F92CDB7DEB788E1EE
:1016D0000FB6F89481BD11BC0FBE2EE088E190E0FA
:1016E0000FB6F894A89581BD0FBE21BD62DE86E0DD
:1016F000E3EDF0E0DF01982F1D929A95E9F7EDEC0C
:10170000F0E0DF011D928A95E9F7CED849DEA99A6B
:10171000A898B89A198207C0A89587E99AE3019713
:10172000F1F700C000008981815089838111F4CFD5
:10173000B898C4D6789441E050E067E070E0CE01FC
:10174000019637D089818F3F41F441E050E067E056
:1017500070E087E690E03DD002C08093670046E0ED
:1017600050E061E070E08DEC90E023D0A89583ED2F
:1017700090E09DD8882349F03DDFA998ABEDB5E016
:101780001197F1F700C00000A99A69D5EFCFFB01CE
:10179000DC0102C005900D9241505040D8F70895E9
:1017A000FB01DC0102C001900D9241505040D8F77E
:1017B0000895DC01CB01FC01E199FECF06C0FFBB1F
:1017C000EEBBE09A31960DB20D9241505040B8F701
:1017D0000895DC01CB0102C02D9105D0415050404D
:1017E000D8F70895262FE199FECF9FBB8EBB2DBB66
:1017F0000FB6F894E29AE19A0FBE01960895F89414
:02180000FFCF18
:101802005AFFFFFFFFFF010508070504030201322B
:061812002E322E3300000F
:00000001FF
