:100000000C9410010C94AD020C942D010C942D0154
:100010000C942D010C942D010C942D010C942D01A8
:100020000C942D010C942D010C942D010C94F409C9
:100030000C942D010C942D010C942D010C942D0188
:100040000C942D010C942D010C942D010C942D0178
:100050000C942D010C942D010C942D010C942D0168
:100060000C942D010C942D01090222000101008045
:100070000A09040000010300000009210101000138
:1000800022590007058103080064120110010000D5
:100090000008C016D9270801010200012E035500EF
:1000A0005300420020004900520020005200650029
:1000B0006D006F0074006500200052006500630051
:1000C00065006900760065007200700377007700B4
:1000D00077002E006D0069006B0072006F006300F6
:1000E0006F006E00740072006F006C006C006500A1
:1000F00072002E006E00650074002F006100720017
:100100007400690063006C00650073002F005500E7
:10011000530042005F00490052005F00520065003A
:100120006D006F00740065005F00520065006300A1
:10013000650069007600650072000403090412027C
:1001400008080E02080105000E14202801010017FE
:100150000306030600000000000909111600000351
:1001600009050C050900000000050D0D151500001E
:1001700003070B100B10000000000107070D0D0016
:10018000000103050C1021050C050C001015252598
:100190000101001C050C1122050C050C000D1A2292
:1001A0002A01010002050C1122050C050C000000BB
:1001B0000000010100010F15070B070B070B0F14BF
:1001C000000F1400010005010B010000FFA1011543
:1001D0000026FF007508850195060900820001854B
:1001E0000295010900B20201850395060900B202D9
:1001F00001850495010900B20201850595060900F3
:10020000B20201850695020900B202018507950434
:100210000900B20201850895010900B20201C0007F
:1002200011241FBECFEFD4E0DEBFCDBF11E0A0E0B0
:10023000B1E0EAE1F9E102C005900D92AC31B107FD
:10024000D9F711E0ACE1B1E001C01D92A63BB107C6
:10025000E1F70E947D0B0C948B0C0C940000CF9363
:10026000C62F20918B0124FF07C020918C0138E814
:10027000232720938C0103C02AE520938B01DC0106
:10028000EDE8F1E09C2F9E0F8D918193892F8E1BBD
:100290001816D4F36C2F8DE891E00E94A902CC5F70
:1002A000C0938B01CF910895CF93DF9360919C0110
:1002B000635067FDC3C080919901CCE0D0E0C81BBA
:1002C000D109C056DE4F809198018D3209F0A4C04B
:1002D000683009F0B1C083EC809380018AE5809397
:1002E000010110921C018881807621F0CE010E94CC
:1002F000A60A7FC09A81109289018981811106C066
:1003000010928A0129E831E082E06FC0853019F44B
:1003100090939D0167C0863009F04EC08B8181307B
:1003200041F48AE890E090939B0180939A0182E1E6
:100330003FC0823041F488E690E090939B01809327
:100340009A0182E235C08330F1F4911108C08AE34A
:1003500091E090939B0180939A0184E029C09130B1
:1003600041F48AEC90E090939B0180939A0180E79E
:100370001FC09230E1F48CE990E090939B01809350
:100380009A018EE215C0813241F48AE790E09093A1
:100390009B0180939A0189E00BC0823241F486EC84
:1003A00091E090939B0180939A0189E501C080E0E0
:1003B00090E490931C011DC0883069F0893019F4D5
:1003C00090939F010FC08A3049F08B3059F48BE431
:1003D00080938C0107C02FE931E002C029E831E0A9
:1003E00081E003C029E831E080E030939B01209355
:1003F0009A018F3F39F4988197FD8E8190E8909310
:100400001C0107C09F81911104C09E81981708F4B8
:10041000892F8093000110C080911C0187FF0CC0C0
:10042000CE010E94490A8F3F21F48EE180930101A1
:1004300003C081111092000110929C018091010172
:1004400084FF58C0809100018F3F09F453C0C82F2A
:10045000893008F0C8E08C1B8093000180918001F6
:1004600098E8892780938001CC2391F180911C0129
:1004700087FF09C06C2F81E891E00E94190AC82FFC
:10048000893090F525C040919A0150919B0186FFDB
:100490000BC0A1E8B1E0FA018C2F8A0F94919D93D3
:1004A00031968A13FBCF09C0DA01E1E8F1E08C2F25
:1004B0008E0F9D9191938E13FCCF2FEF2C0F30E078
:1004C0002F5F3F4F240F351F30939B0120939A01DC
:1004D0006C2F81E891E00E94A902CC5FCC3041F002
:1004E0008FEF8093000104C08FEF80930001CEE175
:1004F000C093010184E193B1937031F48150D9F735
:1005000010929D0110929701DF91CF910895E9E635
:10051000F0E0808182608083E89A8BE480938C0194
:100520008AE580938B010895A82FB92F80E090E091
:1005300041E050EA609530E009C02D9182279795FF
:10054000879510F084279527305EC8F36F5FA8F376
:100550000895EADF8D939D930895CF93CFB7CF93FE
:10056000C395189BE9F7189B09C0189B07C0189BF7
:1005700005C0189B03C0189B01C0A3C0DF93C091A6
:100580009901DD27C056DE4F189B02C0DF91EBCFEB
:100590002F930F931F9303B12FEF00FB20F94F937D
:1005A0003F9313B14FEF012700FB21F93BE031C02E
:1005B0004E7F012F13B1216028C0102F4D7F226084
:1005C000000003B129C04B7F2460012F000013B14C
:1005D0002BC013B1477F28602AC04F7E03B1206132
:1005E0002CC04F7D13B120622FC04F7B03B120641C
:1005F00032C0422703B149934FEF0000102710FB90
:1006000020F913B11370C9F1297F91F2012700FB82
:1006100021F903B1237F89F2315058F1102710FBE3
:1006200022F913B1277E79F2012700FB23F92F7CF1
:1006300081F203B1102710FB24F92F7971F200C069
:1006400013B1012700FB25F92F7359F200C003B144
:10065000102710FB26F9223040F200C013B1012709
:1006600000FB27F9243028F64F77206813B10000EB
:10067000F9CF11E01CBB002719C03B503195C31BBB
:10068000D04011E01CBB0881033CF9F00B34E9F0C9
:10069000209197011981110F1213EDCF4A81441F48
:1006A000093641F10D3211F0013E29F700939E0108
:1006B0003F914F911F910F912F91DF91CCB3C0FDCE
:1006C0004FCFCF91CFBFCF91189520919E0122237C
:1006D00079F310919C01112369F534306AF130935C
:1006E0009C0120939801109199013BE0311B3093BC
:1006F000990122C000919C010130E4F40AE54F7099
:1007000049F43091010134FD19C000930101C0E8A2
:10071000D1E018C030918B0134FD10C000938B01E3
:10072000CCE8D1E00FC02795A8F45150A9F4220FCE
:100730000000F9CF4AE503C042ED01C0432FC4E1F8
:10074000D0E032E014B11360289A14B905B120E466
:1007500013E05F93012756E005B9279520F4515027
:1007600021F4220FF9CF012756E000003B5A05B9CA
:10077000D0F2279528F4515029F4220F0000F9CF28
:10078000012756E0279505B920F4515021F4220F96
:10079000F9CF012756E02991332305B921F60C7FC3
:1007A00010919D01110FC651D04005B911F0109361
:1007B000970111E01CBB016014B11C7F402F4C7FDE
:1007C0005F9100C000C005B914B945B971CF6091FF
:1007D0005D0190915501691730F120915601621722
:1007E00010F570915B01482F50E02091300130915D
:1007F0003101772379F0762F791B072E02C0440F41
:10080000551F0A94E2F7422B532B5093310140932A
:10081000300132C0220F331F242B352B309331018E
:100820002093300129C090915701691728F1209138
:100830005801621708F570915B01482F50E0209134
:100840002E0130912F01772379F0762F791B072E17
:1008500002C0440F551F0A94E2F7422B532B5093CA
:100860002F0140932E0108C0220F331F242B352B5C
:1008700030932F0120932E0190914C019C31B9F4BB
:1008800093EF960F9D3058F590E023EF260F02C0AE
:10089000880F991F2A95E2F720912C0130912D01A4
:1008A000282B392B30932D0120932C0118C0933025
:1008B000B1F49FEE960F943090F490E02FEE260F57
:1008C00002C0880F991F2A95E2F7209128013091E4
:1008D0002901282B392B30932901209328016F5FA0
:1008E00060935D0108952D9825980895FC018091ED
:1008F0003A01882309F48FC080913901873009F4C7
:100900007CC028F4823089F1833041F086C0813187
:1009100009F455C0873109F452C07FC08091350178
:10092000909136012091350130913601892F992718
:100930002095309533278217930709F068C080917E
:1009400035019091360199279093360180933501B6
:10095000209135013091360180913301909134011D
:10096000982F8827822B932B43C08091350190913B
:1009700036012091350130913601892F9927209534
:100980003095332782179307A1F08091370190911A
:1009900038018E3E9748D9F58BE0809339018091DC
:1009A000350190913601892F9927909338018093D2
:1009B00037018091350190913601992719C08091B6
:1009C000350190913601209135013091360186959F
:1009D000817091E098272170332781E028272170CA
:1009E0009217A9F0809135019091360196958795DF
:1009F000909336018093350110C08091370190911A
:100A000038018F7D909338018093370106C080E0D4
:100A100010923A01089580E0089580913901808311
:100A200080913701909138019283818380913501C3
:100A30009091360194838383809132018583109253
:100A40003601109235011092380110923701109240
:100A5000320181E0DDCFCF93DF9383B190913A01F2
:100A600091113EC3807290912701911138C09091ED
:100A70002601811104C09F5F9093260131C3992301
:100A8000F9F081E0809327018093250110922401E1
:100A900010922F0110922E0110923101109230010C
:100AA00010922B0110922A0110922D0110922C010C
:100AB0009FEF90935D01809323011092220110C358
:100AC00080912001909121018F3F2FEF920709F42F
:100AD00007C30196909321018093200101C3909157
:100AE0002501992309F4E4C0882349F0809123016A
:100AF0008F5F809323018A3E08F4F0C1DBC110921E
:100B00003B018091260191EE980F9B3030F490913B
:100B100023019650953008F485C092EA980F9435D9
:100B200058F49091230122ED290F2C3208F47DC056
:100B30009751973108F47CC094EC980F903130F4C1
:100B4000909123019C53903108F475C095EF980F54
:100B5000963020F09AEE980F9B3080F5909123010B
:100B600025EF290F263020F02AEE290F2B3030F503
:100B70008D51853058F49D50933040F441E150E060
:100B80006EE371E08BE391E00E94440C90912301AD
:100B900090931F01809126018151803118F091516D
:100BA000903130F410921E0180E48093220103C042
:100BB00081E080931E0161E771E042C09DED980FD6
:100BC0009B3068F4909123019B50963040F4109232
:100BD0001F0181E080931E0160E671E031C09DEF4E
:100BE000980F9A3090F4909123012AEF290F253025
:100BF00020F024EF290F293040F490931F0181E069
:100C000080931E016FE471E01BC08D51853028F484
:100C1000809123018D50833088F01092270160E08D
:100C200070E00EC065EB71E00BC063E971E008C0D5
:100C300064EA71E005C062E871E002C06EE371E051
:100C400080912701882331F041E150E08CE491E06C
:100C50000E94440C10925D0180915C0180FF20C0D5
:100C600090914C019731E1F09930D1F040912301FE
:100C700020914E01241760F450E030E0220F331F22
:100C8000241735072CF08695817091E0892706C0DE
:100C900090911E01911104C0869581700E94E70316
:100CA00081E080932601109223011092250116C144
:100CB00090912401992309F404C1882309F415C2F1
:100CC00060915D0180915901681317C090915A019C
:100CD000913099F480915C0180FD0CC080912601D7
:100CE00090915101891708F4E5C09091520198172D
:100CF00008F4E0C010925A01F1C0909123019F5F67
:100D00009093230170914C01713031F5492F50E0DF
:100D10004C3051050CF46BC06B3008F468C081E0B6
:100D2000860F80935901862F90E00B97382F22274A
:100D30008091300190913101822B932B909331015E
:100D40008093300180915701860F8F5F8093580107
:100D50008AE080932301C9C1773109F048C020910E
:100D60005A01211144C080915001292F30E090E0B8
:100D7000880F991F281739073CF06F3008F4AEC070
:100D800081E1809359014EC0613108F4A7C081E12F
:100D900080934C01109255018BE080935601809313
:100DA000570186E18093580180912E0190912F0187
:100DB0009C01F6E036952795FA95E1F740913001D0
:100DC00050913101440F551F440F551F242B352BD3
:100DD00030933101209330018F739927B4E0880F4D
:100DE000991FBA95E1F720911E01822B5EC02091D8
:100DF0005C0120FF1BC020915001492F50E030E0E2
:100E0000220F331F421753078CF0462F50E0282F34
:100E100030E0225031094217530744F020915A0123
:100E2000211104C081E080935A015FC19A3E08F409
:100E300055C0262F30E090E001972817390741F47C
:100E400080915A01811104C06F5F60935D0146C0BB
:100E50007C3181F5603271F581E080935A0182E046
:100E600080934C016093590180912C0190912D0148
:100E7000AC01542F44275295550F507E20913001DC
:100E800030913101242B352B3093310120933001E7
:100E900040912E01342F330F330F20E043E096951D
:100EA00087954A95E1F7822B932B90932F0180939E
:100EB0002E0114C0109227011092260110922301D6
:100EC0000DC0811106C0809126018F5F809326019D
:100ED00005C081E080932401809323018091270144
:100EE000882309F4FDC040915D01809159014813A8
:100EF000F7C080915A018111F3C080910401909153
:100F0000050120912E0130912F018217930769F47A
:100F10002091200130912101203B344030F4209178
:100F20001D012F5F20931D0102C010921D01E09151
:100F30004C01E13051F420911D012150223058F430
:100F4000109221011092200193C0EA3021F42091E7
:100F50001D0120FDF5CF21E020933A01E23011F58B
:100F6000411128C0209120013091210128303740C3
:100F7000B0F42091020130910301309331012093AC
:100F8000300190932F0180932E0120913201216036
:100F90002093320110922101109220010BC0109277
:100FA0003A0108C0E93031F4443221F425E12093BC
:100FB000390132C0E0933901E23171F520912E01FF
:100FC00030912F01A9014F705527A4E03695279540
:100FD000AA95E1F7452B09F0206830932F01209363
:100FE0002E016091300170913101AB01440F551F0A
:100FF000440F551F44275F7020912E0130912F011F
:10100000242B352B30932F0120932E016F737727DC
:1010100070933101609330012091300130913101A2
:101020003093380120933701E23029F430930301E3
:10103000209302010DC0E73059F440912201209124
:101040002E0130912F01242B30932F0120932E015C
:1010500020912E0130912F013093360120933501DC
:1010600020912801309129013093340120933301DC
:1010700020913A01222351F120912E0130912F012C
:1010800040913001509131018217930799F480917A
:101090000201909103018417950761F4809120016A
:1010A000909121018A3C984028F48091320181601E
:1010B0008093320150930301409302013093050164
:1010C0002093040110922101109220011092270117
:1010D00010922F0110922E011092260110922301DE
:1010E00080913A01DF91CF91089580915C0180FF5A
:1010F000DFC0C091260190914E019C1708F04DC0B1
:1011000090914C019930B1F490915D01943091F43B
:101110002C2F30E02C3031056CF080915901843255
:1011200029F481E00E94E70381E034C080E00E945E
:10113000E70320C0D1E0869581708D270E94E703E8
:1011400080914C018930E1F480915D018430C1F4DB
:101150008C2F90E00C97A4F081E00E94E70380912F
:1011600050012091230130E090E0880F991F8217F1
:1011700093071CF410921E0160C0D0931E015DC045
:1011800080915C01869581700E94E70380915C01EB
:101190008695817080931E0150C080914D01C817C3
:1011A000A8F120911F018091500140911E018217EA
:1011B00068F430E090E0880F991F8217930734F0AD
:1011C00081E0411180E080931E0101C0842F909145
:1011D0004C019930C1F490915D019130A1F48130BE
:1011E00091F494E29093590125E02093550124E174
:1011F0002093560125E120935701909358011092B6
:101200003101109230010E94E70317C080913B0129
:10121000823179F4C250C73060F48091230198EF95
:10122000980F973018F08150853018F410924C01C7
:1012300004C0109227011092230180913B0182315A
:1012400091F5809126018250873068F580912301C5
:1012500098EF980F973010F481E004C081508530EA
:1012600018F480E00E94400B80914C0181111BC05A
:1012700081E1EBE3F1E0ACE4B1E001900D928A95FD
:10128000E1F710923B0180912C0190912D019093F8
:1012900031018093300180912A0190912B0190932C
:1012A0002F0180932E018091230180931F0176C02E
:1012B00080914C01833041F590915D01903131F581
:1012C000809126018550883058F58091230124ECC7
:1012D000280F203150F4109224011092290110920D
:1012E000280181E180935D015BC02AE020934C01DD
:1012F0009093570190E29093580190935901805137
:10130000823108F048C037C08C3179F080912601D5
:1013100090914D01891708F590915101891768F551
:1013200010922701109223013BC080915D0188300B
:1013300069F7909123019E529C3240F79BE1909374
:101340004C0110925501809356018093570180E122
:10135000809358018093590121C090914E019817B4
:10136000D8F29091230120914F019217A8F2209179
:101370005001291788F281E00FC09091520198170F
:1013800078F28091230190915301891748F290914E
:101390005401981728F280E00E94E703109224017C
:1013A00081E094CD89E0809381008FE193E0909378
:1013B00089008093880082E080936F0008958FEF0A
:1013C00085B914B88BB95A981AB893E097B98EEFCB
:1013D00088B985B1892785B985B190E1892785B913
:1013E00084B1892784B9089578941F920F920FB61B
:1013F0000F9211242F933F934F935F936F937F939B
:101400008F939F93AF93BF93EF93FF930E942B050E
:10141000FF91EF91BF91AF919F918F917F916F91CC
:101420005F914F913F912F910F900FBE0F901F90A2
:101430001895FF920F931F93CF93DF93F62EC091D1
:101440007D01D0917E01262F30E0C217D30708F42A
:10145000FC2E20917B010F2D10E0273041F460918C
:101460007F0170E0625A7E4FA8010E945A0C809161
:101470007F018F0D80937F01C01BD10BD0937E0124
:10148000C0937D018F2DDF91CF911F910F91FF9020
:101490000895FF920F931F93CF93DF93EC01F62EE5
:1014A00080917D0190917E01009709F448C0262F1C
:1014B00030E08217930708F4F82E80917C010F2DFD
:1014C00010E060917F01843051F470E0A801CE01FA
:1014D00001960E94730C8981809307011CC085309E
:1014E00079F470E02196A801CE010E94730C86E089
:1014F000FE01AEE6B1E001900D928A95E1F70BC0D6
:10150000883049F470E0A801CE0101960E94730C66
:1015100089818093060180917F018F0D80937F01E7
:1015200020917D0130917E01201B310B30937E0193
:1015300020937D0181E0232B19F080E001C081E040
:10154000DF91CF911F910F91FF900895CF93FC01F0
:1015500080818076803211F0C0E067C08181813067
:10156000D1F58EE591E090939B0180939A01C28121
:10157000C23059F4C0935E0141E050E060E070E099
:101580008FE591E00E94630C50C0C33061F4C093BA
:101590005E0146E050E061E070E08FE591E00E947E
:1015A000630CC7E042C0C730B9F6C0935E0186E065
:1015B000E5E1F1E0AFE5B1E001900D928A95E1F748
:1015C00026E030E030937E0120937D0110927F0170
:1015D000C0937B0129C0893009F0BECF228124301D
:1015E00049F481E090E090937E0180937D01109218
:1015F0007F0118C0253051F486E090E090937E0181
:1016000080937D0181E080937F010CC0283009F038
:10161000A3CF87E080937F0181E090E090937E01EB
:1016200080937D0120937C01CFEF8C2FCF91089583
:101630008091790180FD03C010927A0105C08091EC
:101640007A018F5F80937A0190917A0180910601EF
:10165000981718F4992319F0089580937A0181E07E
:1016600080935E0186E0E4E7F1E0AFE5B1E0019050
:101670000D928A95E1F767E08EE591E00C942F01D9
:1016800090914C0120915D01992311F0225001C0ED
:101690002150309144012317B0F090914501291752
:1016A00090F490E0231B02C0880F991F2A95E2F75F
:1016B00020912C0130912D01282B392B30932D01B5
:1016C00020932C010895309146012317A8F09091A2
:1016D0004701291788F490E0231B02C0880F991F47
:1016E0002A95E2F720912A0130912B01282B392BE2
:1016F00030932B0120932A010895CF93DF931F92FB
:10170000CDB7DEB788E10FB6F894809360001092F1
:1017100060000FBE2EE088E190E00FB6F894A89527
:10172000809360000FBE209360000E94DF0986E076
:10173000E4E7F1E0DF01982F1D929A95E9F7EEE6D4
:10174000F1E0DF011D928A95E9F70E9473040E947F
:10175000D209419A4098209A1982898181508983BF
:10176000882341F0A89587E99AE30197F1F700C033
:101770000000F3CF20980E948702789441E050E067
:1017800060E070E0CE0101960E94630C89818F3F7A
:1017900049F441E050E060E070E087E091E00E94B1
:1017A000730C02C08093070141E050E067E070E0F5
:1017B000CE0101960E94630C89818F3F49F441E07C
:1017C00050E067E070E086E091E00E94730C02C098
:1017D0008093060146E050E061E070E08EE691E023
:1017E0000E94630C06E010E1A89584E791E00E9456
:1017F0007604882309F445C080916E0181508E3FA4
:1018000038F580910701882301F145E050E06EE64C
:1018100071E084E791E00E944D0C892BB1F485B111
:10182000812785B9898181508983882351F0A895C2
:101830000E945401ABEDB5E01197F1F700C0000034
:10184000F1CF85B1812785B914C00E94180B11C052
:1018500046E050E061E070E084E791E00E94730CA4
:10186000E4E7F1E0AEE6B1E0802F01900D928A95B9
:10187000E1F741988BED95E00197F1F700C000008A
:10188000419A0E945401B0CFFB01DC0102C00590D7
:101890000D9241505040D8F70895FB01DC0104C07F
:1018A0008D910190801921F441505040C8F7881B58
:1018B000990B0895FB01DC0102C001900D9241508B
:1018C0005040D8F70895DC01CB01FC01F999FECF17
:1018D00006C0F2BDE1BDF89A319600B40D924150B8
:1018E0005040B8F70895DC01CB0103C02D910E9450
:1018F0007E0C41505040D0F70895262FF999FECF25
:101900001FBA92BD81BD20BD0FB6F894FA9AF99A1C
:0A1910000FBE01960895F894FFCF72
:10191A00FF5AFFFFFFFF0501080705040302013212
:0C192A002E322E3300322E322E330000FD
:00000001FF
