:100000000C947E010C941B030C949B010C949B019B
:100010000C949B010C949B010C949B010C949B01F0
:100020000C949B010C949B010C949B010C940F0E5F
:100030000C949B010C949B010C949B010C949B01D0
:100040000C949B010C949B010C949B010C949B01C0
:100050000C949B010C949B010C949B010C949B01B0
:100060000C949B010C949B01090222000101008069
:100070000A09040000010300000009210101000138
:1000800022590007058103080064120110010000D5
:100090000008C016D9270801010200012E035500EF
:1000A0005300420020004900520020005200650029
:1000B0006D006F0074006500200052006500630051
:1000C00065006900760065007200700377007700B4
:1000D00077002E006D0069006B0072006F006300F6
:1000E0006F006E00740072006F006C006C006500A1
:1000F00072002E006E00650074002F006100720017
:100100007400690063006C00650073002F005500E7
:10011000530042005F00490052005F00520065003A
:100120006D006F00740065005F00520065006300A1
:1001300065006900760065007200040309041F056C
:100140000C0E1D050C040A00000010100101001E19
:10015000060A3C4B060A1A220004050C0C0100009A
:100160001A0C030C030C030C030003031010000112
:10017000041902042833020412180105050C0D01AC
:100180000000120208080E02080105000E142028C3
:100190000101001703060306000000000009091111
:1001A000160000030F060A060A0000000000000106
:1001B0000B110001030E02047E9C0204293500008D
:1001C0000313140100000D0F190307050A0F18008F
:1001D00000000A0A0100000C0104637C0104415282
:1001E0000206060C0C01000009050C0509000000C0
:1001F00000050D0D1515000003080307171E030762
:10020000090D0005050F0F010000070B100B100072
:100210000000000107070D0D000001060104637CCA
:10022000010441520104040A0A01000005020B0CFA
:100230001A020B020B00101C2830010100040713E6
:100240001738071307130C18000C180101000305D9
:100250000C1021050C050C00101525250101001CB2
:10026000050C1122050C050C000D1A222A010100B3
:1002700002050C1122050C050C0000000000010114
:100280000002050C1122050C050C001010202001A5
:100290000100010F15070B070B070B0F14000F14BC
:1002A00000010005010B010000FFA101150026FF60
:1002B00000750885019506090082000185029501F7
:1002C0000900B20201850395060900B20201850406
:1002D00095010900B20201850595060900B20201E7
:1002E000850695020900B20201850795040900B24E
:1002F0000201850895010900B20201C011241FBE48
:10030000CFEFD4E0DEBFCDBF11E0A0E0B1E0E0E58B
:10031000F1E202C005900D92AE31B107D9F711E0BC
:10032000AEE1B1E001C01D92A23CB107E1F70E942D
:10033000980F0C94A6100C940000CF93C62F209118
:10034000970124FF07C02091980138E823272093C4
:10035000980103C02AE520939701DC01E9E9F1E067
:100360009C2F9E0F8D918193892F8E1B1816D4F38D
:100370006C2F89E991E00E941703CC5FC09397012D
:10038000CF910895CF93DF936091A801635067FDEB
:10039000C3C08091A501CCE0D0E0C81BD109C455F1
:1003A000DE4F8091A4018D3209F0A4C0683009F0BD
:1003B000B1C083EC80938C018AE580930101109297
:1003C0001E018881807621F0CE010E94C10E7FC07F
:1003D0009A81109295018981811106C0109296012F
:1003E00025E931E082E06FC0853019F49093A901CE
:1003F00067C0863009F04EC08B81813041F48AE8B5
:1004000090E09093A7018093A60182E13FC08230E3
:1004100041F488E690E09093A7018093A60182E2E0
:1004200035C08330F1F4911108C08AE391E09093D4
:10043000A7018093A60184E029C0913041F48AECA1
:1004400090E09093A7018093A60180E71FC09230AF
:10045000E1F48CE990E09093A7018093A6018EE2ED
:1004600015C0813241F48AE790E09093A701809310
:10047000A60189E00BC0823241F483EA92E09093B6
:10048000A7018093A60189E501C080E090E49093E4
:100490001E011DC0883069F0893019F49093AB01BA
:1004A0000FC08A3049F08B3059F48BE48093980167
:1004B00007C02BEA31E002C025E931E081E003C04A
:1004C00025E931E080E03093A7012093A6018F3F1A
:1004D00039F4988197FD8E8190E890931E0107C0B2
:1004E0009F81911104C09E81981708F4892F8093F1
:1004F000000110C080911E0187FF0CC0CE010E9438
:10050000640E8F3F21F48EE18093010103C08111BD
:10051000109200011092A8018091010184FF58C03F
:10052000809100018F3F09F453C0C82F893008F033
:10053000C8E08C1B8093000180918C0198E889278A
:1005400080938C01CC2391F180911E0187FF09C01B
:100550006C2F8DE891E00E94340EC82F893090F501
:1005600025C04091A6015091A70186FF0BC0ADE8C0
:10057000B1E0FA018C2F8A0F94919D9331968A13E2
:10058000FBCF09C0DA01EDE8F1E08C2F8E0F9D91D1
:1005900091938E13FCCF2FEF2C0F30E02F5F3F4F46
:1005A000240F351F3093A7012093A6016C2F8DE8EF
:1005B00091E00E941703CC5FCC3041F08FEF809325
:1005C000000104C08FEF80930001CEE1C0930101D0
:1005D00084E193B1937031F48150D9F71092A9015D
:1005E0001092A301DF91CF910895E9E6F0E08081B8
:1005F00082608083E89A8BE4809398018AE58093F7
:1006000097010895A82FB92F80E090E041E050EACB
:10061000609530E009C02D9182279795879510F05D
:1006200084279527305EC8F36F5FA8F30895EADF4B
:100630008D939D930895CF93CFB7CF93C395189B78
:10064000E9F7189B09C0189B07C0189B05C0189BA9
:1006500003C0189B01C0A3C0DF93C091A501DD2793
:10066000C455DE4F189B02C0DF91EBCF2F930F9341
:100670001F9303B12FEF00FB20F94F933F9313B16A
:100680004FEF012700FB21F93BE031C04E7F012FE6
:1006900013B1216028C0102F4D7F2260000003B1EC
:1006A00029C04B7F2460012F000013B12BC013B170
:1006B000477F28602AC04F7E03B120612CC04F7D48
:1006C00013B120622FC04F7B03B1206432C0422798
:1006D00003B149934FEF0000102710FB20F913B12D
:1006E0001370C9F1297F91F2012700FB21F903B1B1
:1006F000237F89F2315058F1102710FB22F913B1F2
:10070000277E79F2012700FB23F92F7C81F203B1C8
:10071000102710FB24F92F7971F200C013B10127C3
:1007200000FB25F92F7359F200C003B1102710FB0D
:1007300026F9223040F200C013B1012700FB27F94F
:10074000243028F64F77206813B10000F9CF11E06C
:100750001CBB002719C03B503195C31BD04011E092
:100760001CBB0881033CF9F00B34E9F02091A30194
:100770001981110F1213EDCF4A81441F093641F13F
:100780000D3211F0013E29F70093AA013F914F91DC
:100790001F910F912F91DF91CCB3C0FD4FCFCF911F
:1007A000CFBFCF9118952091AA01222379F3109100
:1007B000A801112369F534306AF13093A801209320
:1007C000A4011091A5013BE0311B3093A50122C08B
:1007D0000091A8010130E4F40AE54F7049F430912A
:1007E000010134FD19C000930101CCE8D1E018C02B
:1007F0003091970134FD10C000939701C8E9D1E012
:100800000FC02795A8F45150A9F4220F0000F9CF8A
:100810004AE503C042ED01C0432FC4E1D0E032E01D
:1008200014B11360289A14B905B120E413E05F9362
:10083000012756E005B9279520F4515021F4220FE5
:10084000F9CF012756E000003B5A05B9D0F22795B1
:1008500028F4515029F4220F0000F9CF012756E067
:10086000279505B920F4515021F4220FF9CF012723
:1008700056E02991332305B921F60C7F1091A90187
:10088000110FC651D04005B911F01093A30111E02A
:100890001CBB016014B11C7F402F4C7F5F9100C0D6
:1008A00000C005B914B945B971CF60916801909144
:1008B0005701611105C09F3019F480936901D6C0BA
:1008C00070916001671730F120916101621710F596
:1008D000E0916601482F50E020913B0130913C01AE
:1008E000EE2379F0E62FE71B0E2E02C0440F551FB2
:1008F0000A94E2F7422B532B50933C0140933B0167
:1009000032C0220F331F242B352B30933C01209310
:100910003B0129C070916201671728F120916301A2
:10092000621708F5E0916601482F50E020913901E7
:1009300030913A01EE2379F0E62FE71B0E2E02C02C
:10094000440F551F0A94E2F7422B532B50933A0160
:100950004093390108C0220F331F242B352B3093CD
:100960003A01209339019C31C1F493EF960F9D30E9
:1009700008F07CC090E023EF260F02C0880F991F7B
:100980002A95E2F72091370130913801282B392B35
:10099000309338012093370169C09330C1F49FEE42
:1009A000960F943008F062C090E02FEE260F02C040
:1009B000880F991F2A95E2F7209133013091340175
:1009C000282B392B30933401209333014FC09530BD
:1009D00009F04CC09CEE960F9430A0F4482F50E0E4
:1009E00098EF960F02C0440F551F9A95E2F7209199
:1009F000390130913A01242B352B30933A01209361
:100A0000390113C098EE960F943068F4282F9CEEAD
:100A1000960F01C0220F9A95EAF790912C01922B24
:100A200090932C0102C0603308F5E62FE695E69519
:100A3000E695262F2770F0E0E35DFE4F882359F0FE
:100A400081E090E0022E01C0880F0A94EAF79081BD
:100A5000982B90830BC081E090E0022E01C0880F9C
:100A60000A94EAF780959081892380836F5F609371
:100A7000680108952D9825980895FC0180914501FD
:100A8000882309F4FEC080914401873109F47EC0B7
:100A900068F48330B9F018F48230D9F1F4C08730AB
:100AA00009F497C0813109F471C0EDC0893109F4AE
:100AB00088C008F498C08A3109F49EC08F3109F4C7
:100AC00053C0E1C0809140019091410120914001CB
:100AD00030914101892F992720953095332782172E
:100AE000930709F0CAC08091400190914101992774
:100AF0009093410180934001209140013091410148
:100B000080913E0190913F01982F8827822B932B53
:100B1000AFC08091400190914101209140013091FE
:100B20004101892F99272095309533278217930704
:100B3000A9F080914201909143018E3E974809F0BF
:100B40009CC08BE0809344018091400190914101D1
:100B5000892F99279093430180934201809140010E
:100B600090914101992784C0809140019091410169
:100B70002091400130914101892F9927209530958E
:100B800033278217930709F078C0E8CF809140019E
:100B900090914101209140013091410186958170F1
:100BA00091E098272170332781E028272170921740
:100BB00009F463C080914001909141019695879519
:100BC00057C08091400190914101892B09F05BC091
:100BD00054C080914201909143018F7D90934301D5
:100BE0008093420150C080914001909141018D3726
:100BF000910509F048C041C08091400190914101A8
:100C000094FF3BC080914001909141018F719927E1
:100C10004597A1F48091400190914101B5E09695EE
:100C20008795BA95E1F790934101809340018091B7
:100C30004001909141018F7799271AC0809140011E
:100C4000909141018F7199274097B9F480914001AB
:100C500090914101A5E096958795AA95E1F790932B
:100C60004101809340018091400190914101806851
:100C7000909341018093400106C080E010924501AD
:100C8000089580E00895809144018083809142011D
:100C90009091430192838183809140019091410121
:100CA0009483838380913D0185831092410110924A
:100CB0004001109243011092420110923D0181E0E7
:100CC000DDCFCF93DF9383B190914501911184C51E
:100CD000807290912B0191115DC090912A01811138
:100CE00004C09F5F90932A0177C5992309F181E0A1
:100CF00080932B01809329011092280110923A01D0
:100D00001092390110923C0110923B0110922C017B
:100D1000109236011092350110923801109237016D
:100D20009FEF90936801809327011092260154C58C
:100D300080912401909125018F3F2FEF920709F4B4
:100D40004BC5019690932501809324018091060163
:100D5000909107018F3F6FEF960709F43DC501960B
:100D600090930701809306018233944008F434C5C0
:100D70008091220190912301892B09F42DC51092B5
:100D80002301109222018FEF9FEF90930701809330
:100D9000060122C590912901992309F4BBC188233A
:100DA00059F0809127018F5F809327018A3E08F4D4
:100DB00085C3809144016EC31092460180912A013F
:100DC00021EE280F2B3030F490912701965094306B
:100DD00008F428C190914401943161F490EB980F8C
:100DE0009F3640F4909127019A539C3618F461E89D
:100DF00072E041C192EA980F943588F4309127014E
:100E000042ED430F4C3208F410C13751373138F4FA
:100E100080914401843159F360E772E02CC1309134
:100E20004401343139F4943528F4909127019550D8
:100E30009830E8F294EC980F903130F490912701BB
:100E40009C53903108F4F4C097ED980F983130F42A
:100E5000909127019952983108F4EDC093ED980FC5
:100E60009D3030F4909127019651983008F4E6C0F7
:100E70003FEF380F343030F49091270193569A3178
:100E800008F4DFC094EF980F943020F098EE980F9C
:100E9000973080F59091270144EF490F443020F0BE
:100EA00048EE490F473030F58D51853058F49D504C
:100EB000933040F441E150E062E871E086E491E073
:100EC0000E945F10909127019093210180912A0147
:100ED00080518F3018F090519F3030F410922001E3
:100EE00080E48093260103C081E0809320016AE0C2
:100EF00072E0C1C04DEF480F453058F49091270182
:100F000059EE590F583008F49FC09950953008F4A5
:100F10009BC05AEF580F553058F49091270164EC5C
:100F2000690F603108F493C09A51993008F48FC06A
:100F300096EF980F9D3030F4909127019E5090319C
:100F400008F488C09DED980F9B3068F490912701BC
:100F50009B50963040F41092210181E08093200153
:100F600068EE71E088C0343030F4909127019053DE
:100F70009E3008F472C091EF980F9B3030F490913E
:100F800027019350953008F46BC03EEF380F333093
:100F900050F49091270199529D3028F4109220012D
:100FA00065EB71E068C0553070F4909127015FEDFA
:100FB000590F513140F49093210181E08093200139
:100FC00064EA71E058C04A3090F4909127014AEFEA
:100FD000490F453020F044EF490F493040F49093D9
:100FE000210181E08093200163E971E044C08D51CB
:100FF000853028F4809127018D508330A0F1333063
:1010000028F4809127018355863180F12B3028F414
:10101000809127018A50853060F110922B0160E0A9
:1010200070E029C062E972E026C06FE572E023C07B
:101030006EE472E020C06DE372E01DC06CE272E00D
:101040001AC06BE172E017C069EF71E014C06FE481
:1010500071E011C06EE371E00EC067ED71E00BC08E
:1010600066EC71E008C062E871E005C061E771E01C
:1010700002C060E671E080912B01882331F041E1EC
:1010800050E087E591E00E945F1010926801809126
:10109000670180FF1FC0909157019731D9F09930B7
:1010A000C9F04091270120915901241760F450E0C4
:1010B00030E0220F331F241735072CF086958170FE
:1010C00091E0892713C09091200191111BC0869552
:1010D00081700CC082FD16C080915701883049F4A0
:1010E000809127018751883058F481E00E9455048F
:1010F00009C08E3139F4809127018C538031A8F3D7
:1011000080E0F4CF81E080932A01109227011092B1
:101110002901D4C190912801992309F4C2C1909169
:101120006701882309F45DC36091680180916401BF
:10113000681315C020916501213089F4957061F420
:1011400080912A0190915C01891708F4A3C19091C4
:101150005D01981708F49EC110926501AFC1C0915E
:101160002701CF5FC093270170915701713029F596
:101170002C2F30E02C30310504F16B30F0F081E0A1
:10118000860F80936401262F30E02B503109522FB7
:10119000442720913B0130913C01242B352B309387
:1011A0003C0120933B0180916201860F8F5F809309
:1011B00063018AE08093270114C392FF14C07A313F
:1011C00091F4AC2FB0E020E130E0261B31094CE077
:1011D000429FF001439FF00D11249D012E173F0700
:1011E0000CF0FFC2A7C07F3009F059C02091650103
:1011F0002111A0C0C63218F18BEF860F8230F8F4AF
:1012000081E08093650188E18093570187E08093B6
:10121000640110926001109261011092620180934A
:101220006301809169012091390130913A01220FC7
:10123000331F282B30933A0120933901D2C22091D9
:101240005B014C2F50E030E0220F331F4217530751
:101250002CF0683008F432C18AE036C06A3008F4F5
:101260002DC180E18093570189E08093600191E175
:101270009093610191E0909362018093630180916A
:10128000390190913A019C0122273370232B09F4F4
:1012900015C190933B0110923C019927CEC0773144
:1012A00009F048C020916501211144C020915B01E3
:1012B0004C2F50E030E0220F331F421753073CF011
:1012C0006F3008F4FBC081E1809364014CC0613150
:1012D00008F4F4C081E180935701109260018BE023
:1012E000809361018093620186E180936301809124
:1012F000390190913A019C01C6E036952795CA952F
:10130000E1F740913B0150913C01440F551F440FC0
:10131000551F242B352B30933C0120933B018F73B9
:10132000992724E0880F991F2A95E1F72091200141
:10133000822B83C090FF1BC020915B014C2F50E09B
:1013400030E0220F331F421753078CF0462F50E036
:10135000282F30E0225031094217530744F02091E2
:101360006501211104C081E0809365013AC2CA3E43
:1013700008F4A4C0262F30E090E001972817390721
:1013800041F480916501811104C06F5F6093680131
:1013900095C0723021F580EF860F823008F07AC058
:1013A00041E04093650184E18093570160936401BB
:1013B00080913B0190913C019C01A4E036952795DA
:1013C000AA95E1F730933A01209339018F7099275C
:1013D00090933C0180933B0140932B016FC07C3183
:1013E00009F058C0603271F581E08093650182E0B8
:1013F0008093570160936401809137019091380187
:10140000AC01542F44275295550F507E20913B013B
:1014100030913C01242B352B30933C0120933B0130
:1014200040913901342F330F330F20E0F3E09695CC
:101430008795FA95E1F7822B932B90933A0180934D
:1014400039013CC080EF860F823020F581E0809327
:10145000650184E1809357016093640140913B01F1
:1014600050913C0180913701382F330F20E0CA01A1
:1014700074E0969587957A95E1F7822B932B90935C
:101480003A01809339014F70552750933C014093A6
:101490003B0114C010922B0110922A0110922701D7
:1014A0000DC0811106C080912A018F5F80932A01AF
:1014B00005C081E0809328018093270180912B0152
:1014C000882309F489C160916801809164016813DF
:1014D00083C18091650181117FC1409104015091C8
:1014E00005018091390190913A014817590769F433
:1014F0002091240130912501203B344030F420918B
:101500001F012F5F20931F0102C010921F01E09165
:101510005701E13051F420911F0121502230A8F4ED
:10152000109225011092240118C1E53029F4209170
:101530001F01213051F4F4CFEA3029F420911F012A
:1015400020FDEECF02C0ED30C9F321E0209345012C
:10155000E83091F59C01209530953370609122011F
:101560007091230126173707B9F430933A0120937D
:1015700039011092230110922201E09344018091DD
:101580003B0190913C019093430180934201309341
:10159000410120934001E1C080FD09C090932301E7
:1015A0008093220110920701109206011AC0109236
:1015B00023011092220115C0EF3029F48F3F914092
:1015C00009F06DC00EC0E03179F420913B013091FB
:1015D0003C012F3F310509F062C08E3F910509F0B3
:1015E0005EC010924501B9C0E23011F5611157C0DB
:1015F000809124019091250188309740B0F480912A
:1016000002019091030190933C0180933B01509320
:101610003A014093390180913D01816080933D0101
:1016200010922501109224013AC01092450137C052
:10163000E53069F590912D0180912E0160912F0187
:10164000292F22952F709F702927982F9F70292767
:1016500082958F70282730E0862F8F7090E02817B2
:10166000390711F010924501809130018627909141
:10167000310189279091320189131092450180919F
:101680003D0190912C01892B80933D0108C0E930E8
:1016900031F4643221F485E18093440132C0E09357
:1016A0004401E23171F58091390190913A019C0138
:1016B0002F703327C4E096958795CA95E1F7232BC1
:1016C00009F0806890933A018093390160913B0161
:1016D00070913C019B01220F331F220F331F2227E1
:1016E0003F708091390190913A01822B932B909316
:1016F0003A01809339016F73772770933C016093AF
:101700003B0180913B0190913C0190934301809378
:101710004201E23029F490930301809302010DC04D
:10172000E73059F4209126018091390190913A01D6
:10173000822B90933A0180933901809139019091E5
:101740003A0190934101809340018091330190913F
:10175000340190933F0180933E018091450188239D
:1017600051F18091390190913A0120913B013091E2
:101770003C014817590799F4409102015091030127
:101780004217530761F440912401509125014A3CCE
:10179000584028F440913D01416040933D01309311
:1017A000030120930201909305018093040110929C
:1017B00025011092240110922B0110923A011092EF
:1017C000390110922A01109227018091440184313D
:1017D00019F487E880932A0180914501DF91CF9128
:1017E000089590FFE0C0C0912A01809159018C17A3
:1017F00008F04EC0809157018930B1F480916801A2
:10180000843091F42C2F30E02C3031056CF0809135
:101810006401843229F481E00E94550481E035C0DE
:1018200080E00E94550421C0D1E091FB882780F917
:101830008D270E945504809157018930E1F48091F1
:1018400068018430C1F48C2F90E00C97A4F081E003
:101850000E94550480915B012091270130E090E0C7
:10186000880F991F821793071CF41092200160C003
:10187000D09320015DC080916701869581700E94A0
:10188000550480916701869581708093200150C036
:1018900080915801C817A8F12091210180915B0126
:1018A00040912001821768F430E090E0880F991F82
:1018B0008217930734F081E0411180E0809320018A
:1018C00001C0842F909157019930C1F49091680123
:1018D0009130A1F4813091F494E29093640125E079
:1018E0002093600124E12093610125E120936201AE
:1018F0009093630110923C0110923B010E945504A9
:1019000017C080914601823179F4C250C73060F42B
:101910008091270198EF980F973018F0815085300B
:1019200018F41092570104C010922B011092270155
:1019300080914601823191F580912A018250873051
:1019400068F58091270198EF980F973010F481E0A7
:1019500004C08150853018F480E00E945B0F8091B4
:10196000570181111BC081E1E6E4F1E0A7E5B1E098
:1019700001900D928A95E1F710924601809137010E
:101980009091380190933C0180933B018091350107
:101990009091360190933A0180933901809127010B
:1019A0008093210116C192FF35C09091680180910A
:1019B0006401981728F5C0912A01809159018C176C
:1019C000F8F481E00E94550480915801C81720F076
:1019D000C81BC0932A01E9CF10922A01E6CFC0911B
:1019E000270180915B018C1708F0F3C080E00E9412
:1019F000550480915A01C81750F0C81BC0932701A5
:101A00009091680180916401981748F3E2C01092A8
:101A10002701F6CF90915701933039F52091680155
:101A2000203109F07FC080912A018550883038F537
:101A30008091270194EC980F903140F41092280186
:101A4000109234011092330181E14DC09AE09093DD
:101A500057012093620190E2909363019093640197
:101A60008051823108F085C0B1C09C3169F09E3050
:101A700009F058C080912A0182508330F8F010920A
:101A80002B0110922701A7C080916801883009F0CE
:101A900049C0209127012E522C3208F043C09BE10F
:101AA00090935701109260018093610180936201CD
:101AB00080E180936301809364018BC09091680101
:101AC00080912701913039F4825D8632C0F6109200
:101AD000280182E008C0933149F4885A883278F6A8
:101AE0001092280184E18093680175C092E8980FF4
:101AF0009F3138F481E00E94550481E080932001F9
:101B000068C097ED980F9D3030F480E00E94550436
:101B1000109220015EC08355863108F0B0CF8091CD
:101B2000200155C080912A0120915801821778F038
:101B300020915901281758F02091270130915A011E
:101B4000231728F030915B01321708F03FC0209135
:101B50005C01821780F020915D01281760F02091D0
:101B6000270130915E01231730F030915F01321769
:101B700010F080E02CC0993109F081CF8250833081
:101B800008F07DCF80916801883011F0863029F40B
:101B9000909127019D53913148F08C3009F06FCF1F
:101BA000809127018355863188F069CF883071F4A0
:101BB00089E0809368018091390190913A01880F02
:101BC000991F90933A018093390103C081E00E94EC
:101BD00055041092280181E069CC89E0809381004E
:101BE0008FE193E0909389008093880082E0809356
:101BF0006F0008958FEF85B914B88BB95A981AB849
:101C000093E097B98EEF88B985B1892785B985B1F9
:101C100090E1892785B984B1892784B9089578949A
:101C20001F920F920FB60F9211242F933F934F9351
:101C30005F936F937F938F939F93AF93BF93EF9334
:101C4000FF930E946106FF91EF91BF91AF919F9129
:101C50008F917F916F915F914F913F912F910F9055
:101C60000FBE0F901F901895FF920F931F93CF9365
:101C7000DF93F62EC0918901D0918A01262F30E0A2
:101C8000C217D30708F4FC2E209187010F2D10E016
:101C9000273041F460918B0170E066597E4FA801B6
:101CA0000E94751080918B018F0D80938B01C01B5A
:101CB000D10BD0938A01C09389018F2DDF91CF91F1
:101CC0001F910F91FF900895FF920F931F93CF9351
:101CD000DF93EC01F62E8091890190918A010097A3
:101CE00009F448C0262F30E08217930708F4F82E35
:101CF000809188010F2D10E060918B01843051F4A8
:101D000070E0A801CE0101960E948E108981809317
:101D100009011CC0853079F470E02196A801CE013C
:101D20000E948E1086E0FE01AAE7B1E001900D92BC
:101D30008A95E1F70BC0883049F470E0A801CE0124
:101D400001960E948E1089818093080180918B01F9
:101D50008F0D80938B012091890130918A01201B86
:101D6000310B30938A012093890181E0232B19F0F4
:101D700080E001C081E0DF91CF911F910F91FF9032
:101D80000895CF93FC0180818076803211F0C0E00D
:101D900067C081818130D1F58AE691E09093A701F7
:101DA0008093A601C281C23059F4C0936A0141E018
:101DB00050E060E070E08BE691E00E947E1050C041
:101DC000C33061F4C0936A0146E050E061E070E026
:101DD0008BE691E00E947E10C7E042C0C730B9F6A2
:101DE000C0936A0186E0E7E1F1E0ABE6B1E0019083
:101DF0000D928A95E1F726E030E030938A01209336
:101E0000890110928B01C093870129C0893009F0A4
:101E1000BECF2281243049F481E090E090938A0182
:101E20008093890110928B0118C0253051F486E00F
:101E300090E090938A018093890181E080938B01E7
:101E40000CC0283009F0A3CF87E080938B0181E09C
:101E500090E090938A018093890120938801CFEFCD
:101E60008C2FCF9108958091850180FD03C0109241
:101E7000860105C0809186018F5F809386019091D5
:101E8000860180910801981718F4992319F0089594
:101E90008093860181E080936A0186E0E0E8F1E0CA
:101EA000ABE6B1E001900D928A95E1F767E08AE632
:101EB00091E00C949D019091570120916801992324
:101EC00011F0225001C0215030914F012317B0F082
:101ED00090915001291790F490E0231B02C0880FC5
:101EE000991F2A95E2F72091370130913801282B6C
:101EF000392B3093380120933701089530915101E7
:101F00002317A8F090915201291788F490E0231B21
:101F100002C0880F991F2A95E2F720913501309170
:101F20003601282B392B3093360120933501089543
:101F3000CF93DF931F92CDB7DEB788E10FB6F89449
:101F400080936000109260000FBE2EE088E190E068
:101F50000FB6F894A895809360000FBE20936000A0
:101F60000E94FA0D86E0E0E8F1E0DF01982F1D9273
:101F70009A95E9F7EAE7F1E0DF011D928A95E9F722
:101F80000E943A050E94ED0D419A4098209A1982CC
:101F9000898181508983882341F0A89587E99AE354
:101FA0000197F1F700C00000F3CF20980E94F502DE
:101FB000789441E050E060E070E0CE0101960E942C
:101FC0007E1089818F3F49F441E050E060E070E08D
:101FD00089E091E00E948E1002C08093090141E0E7
:101FE00050E067E070E0CE0101960E947E1089818A
:101FF0008F3F49F441E050E067E070E088E091E015
:102000000E948E1002C08093080146E050E061E01B
:1020100070E08AE791E00E947E1006E010E1A8954A
:1020200080E891E00E943D05882309F445C0809135
:102030007A0181508E3F38F580910901882301F1A2
:1020400045E050E06AE771E080E891E00E946810A6
:10205000892BB1F485B1812785B989818150898324
:10206000882351F0A8950E94C201ABEDB5E011970D
:10207000F1F700C00000F1CF85B1812785B914C008
:102080000E94330F11C046E050E061E070E080E84C
:1020900091E00E948E10E0E8F1E0AAE7B1E0802F25
:1020A00001900D928A95E1F741988BED95E00197AB
:1020B000F1F700C00000419A0E94C201B0CFFB01BD
:1020C000DC0102C005900D9241505040D8F70895B0
:1020D000FB01DC0104C08D910190801921F4415075
:1020E0005040C8F7881B990B0895FB01DC0102C022
:1020F00001900D9241505040D8F70895DC01CB017A
:10210000FC01F999FECF06C0F2BDE1BDF89A319607
:1021100000B40D9241505040B8F70895DC01CB0156
:1021200003C02D910E94991041505040D0F708955E
:10213000262FF999FECF1FBA92BD81BD20BD0FB6E3
:10214000F894FA9AF99A0FBE01960895F894FFCF81
:10215000FF5AFFFFFFFFFFFF050108070504030209
:0E21600001322E322E3300322E322E3300008A
:00000001FF
